:020000040800F2
:10000000405A002085020008158400081784000863
:100010001B8400081F8400082384000800000000DF
:10002000000000000000000000000000BD0100080A
:100030002784000800000000350200087102000853
:100040009F0200089F0200089F0200082984000800
:100050009F0200089F0200089F0200089F020008FC
:100060009F0200089F0200089F0200089F020008EC
:100070009F0200089F0200089F0200089F020008DC
:100080009F0200089F0200089F0200089F020008CC
:100090009F0200089F0200089F0200089F020008BC
:1000A0009F0200089F0200089F0200089F020008AC
:1000B0009F0200089F0200089F0200089F0200089C
:1000C0009F0200089F0200089F0200089F0200088C
:1000D0009F02000845840008B38400089F020008BE
:1000E0009F0200089F0200089F0200089F0200086C
:1000F0009F0200089F0200089F0200089F0200085C
:100100009F0200089F0200089F0200089F0200084B
:100110009F0200089F0200089F0200089F0200083B
:100120009F0200089F0200089F0200089F0200082B
:10013000DFF81CD00BF09EF80BF0FEFF0021034807
:100140000CF070F80CF00AF8FEE700002001002027
:10015000405A002080F309887047EFF30980704708
:10016000684680F3098804480078C00714BF02205D
:10017000032080F3148870472CE10008DFF818C0D2
:10018000EFF305831B0618BF6047EFF31483DB070B
:1001900008BF604700DF704739CD0008DFF818C09E
:1001A000EFF305831B0618BF6047EFF31483DB07EB
:1001B00008BF604700DF70471DCF0008EFF30980DC
:1001C000816911F8021CF1B990E80F10E047EFF3D4
:1001D000098C8CE80700144B93E8060091420FD07D
:1001E00039B12CE9F00FC1F828C00CB40DF064F956
:1001F0000CBC1A60D2F828C0BCE8F00F8CF3098858
:100200006FF0020E704710B5084A1268914209D883
:10021000074C54F8214090E80F10A047EFF3098CE9
:100220008CE80F0010BD00006401002054B40008E9
:1002300054B400080DF014F80C4B93E806009142FA
:1002400010D0EFF3098C2CE9F00FC1F828C00CB4E2
:100250000DF032F90CBC1A60D2F828C0BCE8F00FDF
:100260008CF309886FF0020E7047000064010020D3
:100270000DF0E8F9E0E700000CF05AF80DF0E2F9B3
:10028000DAE700000648804706480047FEE7FEE739
:10029000FEE7FEE7FEE7FEE7FEE7FEE7FEE7FEE736
:1002A00051030008310100080CB5002001900090B6
:1002B0005E48006840F480305C49086000BF5B48DD
:1002C000006800F4003000900198401C01900098F4
:1002D00018B90198B0F5A06FF1D15448006800F446
:1002E000003010B10120009001E000200090009843
:1002F000012828D14E48006840F010004C490860A1
:100300000846006820F0030008600846006808609E
:100310004648406845494860084640684860084685
:10032000406848600846406820F00300486008467E
:10033000406840F00100486000BF3C48406800F061
:100340000C000428F9D10CBD10B5FFF7ADFF10BDAE
:1003500010B53648006840F001003449086008468E
:1003600040683449084031494860084600683249CD
:1003700008402E4908600846006820F48020086084
:100380000846406820F4FE0048604FF41F00886073
:10039000FFF7DAFF4FF000602849086010BD10B584
:1003A000002100200022214B5B6803F00C0121B1E9
:1003B000042906D0082928D107E0214B214C2360CD
:1003C00027E01F4B1F4C236023E0184B5B6803F4AE
:1003D0007010164B5B6803F48032022303EB9040ED
:1003E00022B9194B4343174C23600DE00F4B5B6858
:1003F00003F4003323B1144B4343124C236003E056
:100400000F4B43430F4C236003E00D4B0D4C236017
:1004100000BF00BF054B5B68C3F303130B4CE15CEB
:10042000084B1B68CB40074C236010BD00100240F6
:10043000002002400000FFF8FFFFF6FE08ED00E09C
:1004400000127A000000002000093D000400002096
:1004500031490143314A1160704770B500210023D2
:100460000F22C47804B32D4C246804F4E064C4F56E
:10047000E064210AC1F10403CA40447804FA03F19C
:100480008478144021430901254C0678A15504784D
:1004900004F01F050124AC4005786D11AD0005F195
:1004A000E025C5F8004109E0047804F01F050124A7
:1004B000AC401C4D0678761145F8264070BD1A4AAE
:1004C0000A400243154B1B1F1A60704739B1134A8B
:1004D000121D12680243114B1B1D1A6006E00F4AE1
:1004E000121D126882430D4B1B1D1A6070470428B1
:1004F00008D14FF0E021096941F004014FF0E022FA
:10050000116107E04FF0E021096921F004014FF08B
:10051000E0221161704700000000FA050CED00E0D8
:1005200000E400E080E100E080FFFF1F10B5012043
:1005300000F0F2FE002000F0EFFE10BD2A49086036
:1005400070472949091F08607047274984310860AE
:10055000704701460020254A10884FF67F42104020
:100560000843224A10807047014600201F4A108825
:100570004FF68072104008431C4A1080704708B53F
:1005800000220092194A2C3A0092009A02440092EA
:10059000009A116008BD08B501460020009013487C
:1005A0002C3800900098084400900098008808BDFE
:1005B0000D489C300068C0B270470C480830008875
:1005C00040F0010009490831088070470648A03012
:1005D0000068C0B2704705480830008840F002004B
:1005E000024908310880704704860D422C6C004097
:1005F00001460020FE4A106800F0380008431060F1
:100600007047FB49096821F00801F94A1160114659
:100610000968014311607047F549096821F010012C
:10062000F34A116011460968014311607047F148AF
:10063000EF494860F04848607047EE48EC49486030
:10064000ED4848607047EA48006940F08000E8499A
:1006500008617047E648006940F08000E44908619D
:1006600070470420E249C96801F0010109B1012085
:100670000EE0DF49C96801F0040109B1022007E07A
:10068000DB49C96801F0100109B1032000E0042032
:10069000704700B502460423FFF7E3FF034603E07B
:1006A000FFF7DFFF0346521E012B01D1002AF7D1CD
:1006B00002B90523184600BD30B5044604254FF4A1
:1006C0003020FFF7E6FF0546042D17D1C848006922
:1006D00040F00200C649086108464461006940F0E4
:1006E000400008614FF43020FFF7D3FF0546C048B3
:1006F000006941F6FD710840BD490861284630BDDA
:1007000010B504244FF43020FFF7C3FF0446042C37
:1007100016D1B748006940F00400B54908610846A1
:10072000006940F0400008614FF43020FFF7B1FF4E
:100730000446AF48006941F6FB710840AC490861C6
:10074000204610BD00B502460423FFF78AFF03468A
:1007500003E0FFF786FF0346521E012B01D1002A5A
:10076000F7D102B90523184600BD10B504244FF493
:100770003020FFF7E7FF0446042C16D19C4800699F
:1007800040F004009A4908610846006940F04000C2
:1007900008614FF43020FFF7D5FF04469448006904
:1007A00041F6FB71084092490861204610BD0020C7
:1007B0008F49C96901F0020109B1012000E0002060
:1007C000704730B5A5250424FFF7F1FF00B10025DF
:1007D0004FF43020FFF75DFF0446042C3AD18548E2
:1007E00083498860844888600846006940F020009A
:1007F00008610846006940F0400008614FF430206D
:10080000FFF747FF0446042C1BD17948006941F6E5
:10081000DF710840764908610846006940F0100021
:10082000086176480580E002FFF733FF0446052C97
:1008300010D06F48006941F6EF7108406C490861BB
:1008400008E0052C06D06A48006941F6EF710840BF
:1008500067490861204630BD78B506460C46042538
:1008600000200090E802FFF714FF0546042D24D174
:100870005F48006940F001005D4908613480E8028A
:10088000FFF707FF0546042D10D1B01C0090200C87
:1008900000990880E802FFF7FCFE0546544800690D
:1008A00041F6FE7108405249086106E0504800696F
:1008B00041F6FE7108404E490861284678BD70B582
:1008C00004460D460426F002FFF7E3FE0646042E1A
:1008D00011D14748006940F0010045490861258071
:1008E000F002FFF7D6FE06464148006941F6FE7168
:1008F00008403F490861304670BD70B505460E4658
:100900000424E002FFF7C5FE0446042C17D1394841
:1009100037498860384888600846006940F0100010
:1009200008612E80E002FFF7B4FE0446052C06D0D5
:100930002F48006941F6EF7108402D4908612046B3
:1009400070BD2DE9F04304464FF6FF763746B046BA
:10095000B1460425E443E6B2C4F30727C4F30748CD
:100960004FEA1469E802FFF794FE0546042D49D1C9
:1009700020481F498860204888600846006940F088
:1009800010000861FF2E06D01C4808300680E802DF
:10099000FFF77FFE0546042D08D1FF2F06D017482C
:1009A0000A300780E802FFF774FE0546042D0AD1DD
:1009B000B8F1FF0F07D011480C30A0F80080E80212
:1009C000FFF767FE0546042D0AD1B9F1FF0F07D0E6
:1009D0000A480E30A0F80090E802FFF75AFE0546DC
:1009E000052D0FD00248006941F6EF71084007E07D
:1009F0000020024023016745AB89EFCD00F8FF1FBF
:100A0000664908612846BDE8F08330B505460424F0
:100A10004FF43020FFF73DFE0446042C41D16048DE
:100A20005E4988605F4888600846006940F02000A1
:100A300008610846006940F0400008614FF430202A
:100A4000FFF727FE0446042C22D15448006941F6E2
:100A5000DF710840514908610846006940F0100004
:100A600008611DB100205049088002E0A5204E49D0
:100A700008804FF43020FFF70CFE0446052C10D000
:100A80004648006941F6EF7108404449086108E0B2
:100A9000052C06D04148006941F6DF7108403F4906
:100AA0000861204630BDF0B505460E4617460424C1
:100AB0003B483A4988603B488860E002FFF7E9FD1F
:100AC0000446042C19D13548006940F01000334920
:100AD000086147F0F800304328433349891C0880F7
:100AE000E002FFF7D6FD0446052C06D02B4800692E
:100AF00041F6EF710840294908612046F0BD2748BA
:100B0000C069800870472548006A70470020234963
:100B1000096801F0200109B1012000E000207047C0
:100B200029B11E4A126902431C4B1A6104E01B4A98
:100B300012698243194B1A6170470146002001294E
:100B400008D1164AD26902F001020AB1012008E078
:100B5000002006E0114AD2680A400AB1012000E0F4
:100B6000002070470D49C860704704200B49C968D0
:100B700001F0010109B101200EE00849C96801F046
:100B8000040109B1022007E00449C96801F010011D
:100B900009B1032000E0042070470000002002405B
:100BA00023016745AB89EFCD00F8FF1F10B5044660
:100BB000CC48844208D10121042000F093FB00219D
:100BC000042000F08FFB46E0C748844208D1012191
:100BD000082000F087FB0021082000F083FB3AE0AA
:100BE000C248844208D10121102000F07BFB002183
:100BF000102000F077FB2EE0BD48844208D101218F
:100C0000202000F06FFB0021202000F06BFB22E091
:100C1000B848844208D10121402000F063FB002144
:100C2000402000F05FFB16E0B348844208D1012168
:100C3000802000F057FB0021802000F053FB0AE0E9
:100C4000AE48844207D10121801500F04BFB002102
:100C5000A01500F047FB10BD10B50121084600F0BB
:100C600041FB0021012000F03DFB10BD2DE9F041CA
:100C7000024600250026002000230024002791F8CA
:100C800003C00CF00F0591F803C00CF0100CBCF180
:100C9000000F03D091F802C04CEA050591F800C09E
:100CA000BCF1000F31D0146800202BE04FF0010C94
:100CB0000CFA00F3B1F800C00CEA03069E4220D102
:100CC00083004FF00F0C0CFA03F7BC4305FA03FC4A
:100CD0004CEA040491F803C0BCF1280F06D14FF090
:100CE000010C0CFA00FCC2F814C00AE091F803C031
:100CF000BCF1480F05D14FF0010C0CFA00FCC2F812
:100D000010C0401C0828D1D31460B1F800C0BCF159
:100D1000FF0F34DD546800202EE000F1080C4FF086
:100D2000010808FA0CF3B1F800C00CEA03069E4271
:100D300021D183004FF00F0C0CFA03F7BC4305FAE6
:100D400003FC4CEA040491F803C0BCF1280F05D160
:100D500000F1080C08FA0CF8C2F8148091F803C0EE
:100D6000BCF1480F07D100F1080C4FF0010808FA58
:100D70000CF8C2F81080401C0828CED35460BDE89F
:100D8000F0814FF6FF710180022181700421C17052
:100D900070470246002093680B400BB1012000E031
:100DA000002070470146886880B2704702460020E4
:100DB000D3680B400BB1012000E0002070470146D2
:100DC000C86880B2704701617047416170470AB1DD
:100DD000016100E041617047C16070474FF48032AB
:100DE0000A43826181618261826982697047024639
:100DF0000020434B18684FF68073184040EA0210F9
:100E000008433F4B186070473E49C8617047F0B5D2
:100E10000A46002300240021002500F00046B6F118
:100E2000004F02D1364EF16901E0354E7168C0F3D2
:100E3000034583B200F44016B6F5401F08D121F0F7
:100E400070612F4E766826F070662D4F7E6012E03E
:100E500000F48016B6F5801F06D1032606FA05F4C5
:100E6000A14341F0706106E0460D360103FA06F633
:100E7000B14341F0706122B1460D360103FA06F626
:100E8000314300F00046B6F1004F02D11C4EF16133
:100E900001E01B4E7160F0BD30B500228B071C0FC6
:100EA0000F2303FA04F2164B08338C1053F8243046
:100EB0009343134C08348D1044F8253023468C108E
:100EC00053F824308C07240F00FA04F423430C4C0D
:100ED00008348D1044F8253030BD0A49DC310860F3
:100EE0007047000000080140000C01400010014064
:100EF0000014014000180140001C01400020014086
:100F0000000001400000204210B50121080700F058
:100F1000F6F900214FF0805000F0F1F910BD2A4998
:100F20000862704728490861704701460020274A37
:100F3000106820F0E0000843106070472249A0319B
:100F40000860704710B502460020204B186820F05A
:100F50000300104318601E4B1B6843F004031C4C35
:100F60002360012901D130BF00E020BF184B1B686E
:100F700023F00403164C236010BD1448006840F0B1
:100F80000400124908600846006840F0020008604A
:100F90000F48006840F004000D49086000BF00BF22
:100FA00030BF704701460020084A52680A400AB123
:100FB000012000E0002070470449096841EA8001EF
:100FC000024A11607047000000000E4200700040AD
:100FD00010ED00E0DF48006840F00100DD490860E6
:100FE00008464068DC490840DA494860084600681D
:100FF000DA490840D74908600846006820F4802094
:1010000008600846406820F4FE0048604FF41F0066
:1010100088607047CF49096821F48031CD4A11605A
:101020001146096821F480211160B0F5803F03D09A
:10103000B0F5802F0ED106E0C649096841F4803131
:10104000C44A116007E0C349096841F4A021C14ABC
:10105000116000E000BF00BF704710B501460022DC
:10106000002300204A11012A02D1BA4C236806E06D
:10107000022A02D1B74C236A01E0B64C636A01F040
:101080001F02012494401C400CB1012000E000200C
:1010900010BD38B5002000900024002500BF31208D
:1010A000FFF7DBFF05460098401C00900098B0F564
:1010B000A06F01D0002DF2D03120FFF7CEFF08B194
:1010C000012400E00024204638BD01460020A14A4A
:1010D000106820F0F80040EAC10010607047A04995
:1010E00008607047024600209A4B586820F47C1034
:1010F00042EA01031843974B5860704798490866C5
:10110000704701460020934A506820F003000843CE
:10111000506070478F48406800F00C0070470146EF
:1011200000208C4A506820F0F0000843506070475F
:1011300001460020874A506820F4E0600843506070
:10114000704701460020834A506820F4605040EA0E
:10115000C1005060704729B17E4A527A02437D4BEC
:101160005A7204E07B4A527A82437A4B5A72704731
:101170007B49D8310860704701460020754A5068A5
:1011800020F440400843506070470021714A2032EB
:101190001170704A82F82010012802D004280AD168
:1011A00004E001216B4A2032117005E00521694AF3
:1011B0002032117000E000BF00BF7047694908602D
:1011C00070476449096A0143624A11627047654980
:1011D00044390860704730B5002100220024002304
:1011E0005C4D6D6805F00C0121B1042905D008297A
:1011F00023D105E05C4D056022E05B4D05601FE0FA
:10120000544D6D6805F47012524D6D6805F48034CC
:10121000022505EB92421CB9544D554305600BE085
:101220004C4D6D6805F400351DB1504D55430560BA
:1012300002E04D4D5543056002E04B4D056000BF97
:1012400000BF444D6D6805F0F0010909484D6B5C25
:101250000568DD4045603F4D6D6805F4E061090AB1
:10126000434D6B5C4568DD4085603A4D6D6805F423
:101270006051C90A3E4D6B5C4568DD40C560354D27
:101280006D6805F44041890B3A4D6B5CC568B5FB50
:10129000F3F5056130BD29B12E4A526902432D4B49
:1012A0005A6104E02B4A526982432A4B5A617047C3
:1012B00029B1284A92690243264B9A6104E0254AE3
:1012C00092698243234B9A61704729B1214AD269BE
:1012D0000243204BDA6104E01E4AD26982431D4B6F
:1012E000DA61704729B11B4AD2680243194BDA60B0
:1012F00004E0184AD2688243164BDA60704729B17D
:10130000144A12690243134B1A6104E0114A12692C
:101310008243104B1A617047124940390860704788
:101320000F49C86470470B49C87170470948406A43
:1013300040F0807007494862704701460020054A26
:1013400092680A400AB1012000E00020704701497C
:1013500088727047001002400000FFF8FFFFF6FEA1
:10136000000042428004424200127A0000093D001F
:10137000140000202400002029B1504A12880243A2
:101380004E4B1A8004E04D4A128882434B4B1A8020
:1013900070474A48001D008840F010004749091D69
:1013A000088070474548001D00884FF6EF710840DF
:1013B0004249091D08807047002140481C300188BF
:1013C000001F008841EA0040704700B50246FFF761
:1013D000E0FF100C394918310880091D0A80FFF719
:1013E000E1FF00BD00B50246FFF7D3FFC2F30340A3
:1013F000324908310880091D0A80FFF7D3FF00BD7C
:1014000000B50246FFF7C5FF100C2C4920310880BB
:10141000091D0A80FFF7C6FF00BD002027491031D3
:1014200009880907080B25491431098808437047C2
:1014300000BF2248001D008800F020000028F8D0DE
:1014400070471E48001D00884FF6F77108401B4981
:10145000091D088000BF1948001D008800F0080021
:101460000028F8D0704701460020144A121D128847
:101470000A400AB1012000E0002070470F49091D11
:10148000098881430D4A121D1180704701460020D2
:101490000A4A121D12880A40D0B2084A12880A402D
:1014A00012B108B1012000E0002070470349091D76
:1014B00009888143014A121D1180704700280040AD
:1014C00010B50446FE48844208D10121C014FFF73C
:1014D00009FF0021E014FFF705FFC4E0B4F1804FDD
:1014E00008D101210846FFF70AFF00210120FFF77C
:1014F00006FFB8E0F348844208D101210220FFF73B
:10150000FEFE00210220FFF7FAFEACE0EE48844226
:1015100008D101210420FFF7F2FE00210420FFF78B
:10152000EEFEA0E0E948844208D101210820FFF73F
:10153000E6FE00210820FFF7E2FE94E0E448844242
:1015400008D101211020FFF7DAFE00211020FFF75B
:10155000D6FE88E0DF48844208D101212020FFF731
:10156000CEFE00212020FFF7CAFE7CE0DA4884424C
:1015700008D101214014FFF7B5FE00216014FFF7E8
:10158000B1FE70E0D548844209D10121C804FFF7BB
:10159000A9FE00214FF40020FFF7A4FE63E0D0482D
:1015A000844209D101210805FFF79CFE00214FF478
:1015B0008010FFF797FE56E0CA48844209D1012106
:1015C0004805FFF78FFE00214FF40010FFF78AFE59
:1015D00049E0C548844208D101214020FFF78FFE31
:1015E00000214020FFF78BFE3DE0C048844208D137
:1015F00001218020FFF783FE00218020FFF77FFE7E
:1016000031E0BB48844208D101218015FFF777FE05
:101610000021A015FFF773FE25E0B648844209D1EA
:1016200001210804FFF75EFE00214FF48030FFF730
:1016300059FE18E0B048844209D101214804FFF75F
:1016400051FE00214FF40030FFF74CFE0BE0AB4899
:10165000844208D101218804FFF744FE00214FF4A1
:101660008020FFF73FFE10BD00220288944B984275
:101670000ED0994B98420BD0B0F1804F08D0914BCF
:10168000984205D0904B984202D0904B984204D19A
:101690004FF68F731A404B881A438D4B984207D0F0
:1016A0008C4B984204D04FF6FF431A40CB881A4324
:1016B00002808B8883850B880385814B98420BD0F1
:1016C000854B984208D08B4B984205D08A4B984264
:1016D00002D08A4B984201D10B7A03860123838280
:1016E000704770B5002400220023058C4FF6FE766B
:1016F00035400584028C8388048B4FF68F752C400F
:10170000B51E2C400D882C43751E2A400D892A4396
:101710004D882A436A4DA8420BD06F4DA84208D08D
:10172000744DA84205D0744DA84202D0734DA84212
:1017300013D14FF6F7752A404D892A434FF6FB75B2
:101740002A408D882A434FF6FF652B404FF6FF5500
:101750002B408D892B43CD892B4383800483CD88F7
:101760008586028470BD70B5002400220023058C9C
:101770004FF6EF7635400584028C8388048B48F65B
:10178000FF752C404FF6FF452C400D884FF6FF7635
:1017900006EA05252C434FF6DF752A400D8906EA37
:1017A00005152A434D8806EA05152A43444DA842EB
:1017B00002D0494DA8421DD14FF67F752A404D8970
:1017C0004FF6FF7606EA05152A434FF6BF752A4005
:1017D0008D8806EA05152A434FF6FF352B404FF258
:1017E000FF752B408D8906EA85052B43CD8906EAD6
:1017F00085052B4383800483CD880587028470BDD3
:1018000070B5002400220023058C4FF6FF6635409A
:101810000584028C8388848B4FF68F752C404FF69D
:10182000FC752C400D882C434FF6FF552A400D893E
:101830004FF6FF7606EA05252A434D8806EA052578
:101840002A431F4DA84202D0234DA8421DD14FF27A
:10185000FF752A404D894FF6FF7606EA05252A4393
:101860004FF6FF352A408D8806EA05252A434EF6B5
:10187000FF752B404DF6FF752B408D8906EA051547
:101880002B43CD8906EA05152B4383808483CD88BD
:101890008587028470BD70B5002200230024058C6A
:1018A0004EF6FF7635400584038C8488828B48F69B
:1018B000FF752A404FF6FF452A400D8820E00000C2
:1018C000002C01400004004000080040000C0040D3
:1018D000001000400014004000340140004C014062
:1018E000005001400054014000180040001C00401E
:1018F00000200040004001400044014000480140F9
:101900004FF6FF7606EA05252A434DF6FF752B4074
:101910000D8906EA05352B434D8806EA05352B432C
:10192000FA4DA84202D0FA4DA84208D14BF6FF75F5
:101930002C408D894FF6FF7606EA85152C4384806E
:101940008283CD88A0F84050038470BD828B4FF213
:10195000FF331A408283828B4FF6FF7303EA012321
:101960001A4382837047F0B50C46154600220021C9
:101970000026078C4EF6FF7C07EA0C070784828B53
:10198000018C4FF6FF7707EA043640F6FF473A40EE
:101990004FF6FF7707EA05273A434FF6FF7707EA46
:1019A00003373A43D94FB8420ED0D94FB8420BD083
:1019B000B0F1804F08D0D74FB84205D0D64FB842CB
:1019C00002D0D64FB84206D14DF6FF77394046F4E3
:1019D0008057394305E047F6FF57394044F48057B4
:1019E000394382830184F0BD828B4FF6F3731A4032
:1019F0008283828B0A4382837047F0B50C4615467A
:101A0000002200210026078C4FF6FF6C07EA0C0726
:101A10000784828B018C4FF6FF7707EA04264FF686
:101A20000C773A404FF6FF7707EA03172F433A4304
:101A3000B64FB8420ED0B64FB8420BD0B0F1804F7F
:101A400008D0B44FB84205D0B34FB84202D0B34F1C
:101A5000B84206D14FF6FF57394046F480773943F4
:101A600005E04FF2FF57394044F4807739438283D1
:101A70000184F0BD028B4FF2FF331A400283028BC8
:101A80004FF6FF7303EA01231A4302837047F0B550
:101A90000C461546002200210026078C4FF6EF7CED
:101AA00007EA0C070784028B018C4FF6FF7707EAE1
:101AB000041640F6FF473A404FF6FF7707EA033730
:101AC0003A434FF6FF7707EA05273A438F4FB8426C
:101AD0000ED08F4FB8420BD0B0F1804F08D08D4F51
:101AE000B84205D08C4FB84202D08C4FB84206D1D4
:101AF0004FF6DF77394046F01007394305E04FF6DF
:101B00005F77394044F01007394302830184F0BD08
:101B1000028B4FF6F3731A400283028B0A4302834F
:101B20007047F0B50C46154600220021068C4FF692
:101B3000FE773E400684028B018C4FF60C763240D5
:101B40007E1C06EA03162E433243704EB0420ED07E
:101B50006F4EB0420BD0B0F1804F08D06D4EB04206
:101B600005D06D4EB04202D06C4EB04206D14FF659
:101B7000FD76314044F00106314305E04FF6F5763D
:101B8000314044F00106314302830184F0BD70B559
:101B900005460C465D4885420ED05D4885420BD017
:101BA000B5F1804F08D05B48854205D05A48854240
:101BB00002D05A48854200D100E000BF208850B9C9
:101BC0002389A28861882846FFF7ABFFE188284671
:101BD000FFF79EFF25E0208804280AD12389A288E8
:101BE00061882846FFF753FFE1882846FFF742FF48
:101BF00017E0208808280AD12389A288618828460E
:101C0000FFF7FBFEE1882846FFF7EEFE09E0238997
:101C1000A28861882846FFF7A6FEE1882846FFF7DC
:101C200095FE70BD2DE9F04105460C4600260127C2
:101C3000608808B9022600E00026A088012801D1AA
:101C4000022700E001272088A0B92389A2886188A3
:101C50002846FFF766FFE1882846FFF759FF2389EA
:101C60003A4631462846FFF712FFE1882846FFF73B
:101C700001FF13E02389A28861882846FFF707FF48
:101C8000E1882846FFF7F6FE23893A463146284682
:101C9000FFF747FFE1882846FFF73AFFBDE8F081EC
:101CA0000A884B881A438B881A43CB881A430B89BE
:101CB0001A434B891A438B891A43A0F84420704772
:101CC0004FF6FF71818000210180C1804180017247
:101CD00070470021018041808180C1800181418164
:101CE0008181C18170470021018041800121818073
:101CF0000021C180018170470021018041808180E5
:101D0000C18001814181818170470000002C014028
:101D1000003401400004004000080040000C004076
:101D200021B1028842F00102028004E002884FF6ED
:101D3000FE731A400280704731B1B0F8442042F47B
:101D40000042A0F8442005E0B0F84420C2F30E029F
:101D5000A0F8442070471AB183890B43838102E0C5
:101D600083898B43838170478182704741EA0203F4
:101D7000A0F8483070471AB183890B43838102E091
:101D800083898B438381704701894FF6F872114034
:101D9000018170470A46002101894FF68F7319406F
:101DA00011430181704730B504460D46294620464F
:101DB000FFF7F0FF208940F00700208130BD2DE9BA
:101DC000F04104460D4616461F46602D06D13B469F
:101DD000012231462046FFF75AFE05E03B4601222C
:101DE00031462046FFF79DFE29462046FFF7D2FFE9
:101DF000208940F007002081BDE8F08130B50C4615
:101E000000210189C9B24FF6FF7505EA0325154384
:101E100025432943018130BD2DE9F04105460E4699
:101E200017469846002443463A4631462846FFF76F
:101E3000E5FF2C894FF6F870044044F007044FF694
:101E40008F70044044F070042C81BDE8F081F0B53F
:101E500004460D4616461F463B4632462946204656
:101E6000FFF7CCFF208940F480402081F0BD018540
:101E7000828270470A46002101884FF68F7319400D
:101E8000114301807047F0B50C4615461E460021EF
:101E9000002200230189028B038C4FF6F87739402A
:101EA00021434FF6FC473A4040F201173A434FF6C0
:101EB000DD773B404FF6FF7707EA06172F433B439A
:101EC000018102830384F0BD0A460021018B4FF695
:101ED0008F7319401143018370470A460021018B1B
:101EE00048F6FF7319404FF6FF7303EA02231943C4
:101EF000018370470A460021818B4FF68F7319408A
:101F00001143818370470A460021818B48F6FF7395
:101F100019404FF6FF7303EA022319438183704788
:101F200021B1028842F08002028004E002884FF66C
:101F30007F731A400280704721B1828842F0040208
:101F4000828004E082884FF6FB731A4082807047DB
:101F500021B1828842F00802828004E082884FF634
:101F6000F7731A408280704721B1828842F00102E3
:101F7000828004E082884FF6FE731A4082807047A8
:101F80000A460021018B4FF6F77319401143018374
:101F900070470A460021018B4FF2FF7319404FF63C
:101FA000FF7303EA02231943018370470A460021A5
:101FB000818B4FF6F77319401143818370470A46AE
:101FC0000021818B4FF2FF7319404FF6FF7303EA34
:101FD00002231943818370470A460021018B4FF683
:101FE000FB7319401143018370470A460021018B9E
:101FF0004FF6FF3319404FF6FF7303EA02231943EC
:10200000018370470A460021818B4FF6FB7319400C
:102010001143818370470A460021818B4FF6FF33BD
:1020200019404FF6FF7303EA022319438183704777
:102030000A460021018B4FF67F731940114301833B
:1020400070470A460021018BC1F30E014FF6FF7362
:1020500003EA02231943018370470A460021818B5A
:102060004FF67F7319401143818370470A46002160
:10207000818BC1F30E014FF6FF7303EA022319436C
:10208000818370470A460021018C4FF6FD73194089
:102090001143018470470A460021018C4FF6F77303
:1020A00019401143018470470A460021018C4FF604
:1020B000DF7319404FF6FF7303EA021319430184DB
:1020C00070470A460021018C4FF67F7319404FF686
:1020D000FF7303EA02131943018470470A46002183
:1020E000018C4FF6FF5319404FF6FF7303EA0223AA
:1020F0001943018470470A460021018C4FF2FF7397
:1021000019404FF6FF7303EA022319430184704715
:102110000A460021018C4DF6FF7319404FF6FF73FC
:1021200003EA023319430184704730B500230124C8
:102130008C40A3B2048C9C430484048C02FA01F505
:10214000ADB22C43048430BD30B5002304248C4050
:10215000A3B2048C9C430484048C02FA01F5ADB252
:102160002C43048430BD70B503460020002418467B
:10217000183001258D40ACB21D8CA5431D8409B1DA
:10218000082909D100EB6100056825F0700505609C
:102190000568154305600EE00D1FC5F34E05284484
:1021A000056825F4E045056005684FF6FF7606EA08
:1021B00002263543056070BD21B1028842F002025B
:1021C000028004E002884FF6FD731A4002807047D7
:1021D00021B1028842F00402028004E002884FF636
:1021E000FB731A400280704721B1828842F080025E
:1021F000828004E082884FF67F731A4082807047A5
:1022000002884FF6F7731A40028002880A43028060
:10221000704782884FF68F731A40828082880A4303
:102220008280704702894FF6F8731A400281028952
:102230000A430281704702894FF67F731A40028178
:1022400002890A4302817047818470478185704703
:10225000818670470187704781877047A0F84010DA
:10226000704702884FF6FF431A40028002880A43F3
:10227000028070470146888E70470146088F70477C
:102280000146888F70470146B1F84000704701460B
:10229000888C70470146088D704702460020138ADB
:1022A0000B400BB1012000E000207047CA430282BE
:1022B000704730B50246002000230024158A05EA45
:1022C0000103958905EA010413B10CB1012000E076
:1022D000002030BDCA4302827047000010B504469A
:1022E000FB48844209D101218803FEF7FBFF00214E
:1022F0004FF48040FEF7F6FF32E0F648844209D101
:1023000001214804FEF7FBFF00214FF40030FEF7E7
:10231000F6FF25E0F048844209D101218804FEF748
:10232000EEFF00214FF48020FEF7E9FF18E0EB48B4
:10233000844209D10121C804FEF7E1FF00214FF4D6
:102340000020FEF7DCFF0BE0E548844208D10121C4
:102350000805FEF7D4FF00214FF48010FEF7CFFFF1
:1023600010BD2DE9F04786B005460E460024A24672
:1023700000BFA1460027B08900B100BF2F462C8ABC
:102380004CF6FF700440F08804432C82AC894EF672
:10239000F3100440B088318908437189084304432D
:1023A000AC81AC8A4FF6FF400440B0890443AC8254
:1023B00001A8FEF710FFC648874202D1DDF810A041
:1023C00001E0DDF80CA0A88900F4004040B10AEB60
:1023D000CA0000EB0A1031684900B0FBF1F807E0D1
:1023E0000AEBCA0000EB0A1031688900B0FBF1F873
:1023F0006420B8FBF0F004012009642101FB10897E
:10240000A88900F4004040B1322000EBC900B0FBC5
:10241000F1F000F00700044308E0322000EB09105F
:102420006421B0FBF1F000F00F0004432C8106B0F2
:10243000BDE8F0874FF41651016000218180C18012
:1024400001810C21418100218181704710B5024634
:102450000020108A4FF2FF0318400B884C8823435A
:102460008C882343CC8823431843108210BD00215D
:10247000018041808180C180704721B1828942F40E
:102480000052828104E082894DF6FF731A408281F6
:102490007047F0B50346002400260025002040F6D2
:1024A0006A17B94200D100BF1846C1F3421401F0C7
:1024B0001F06012707FA06F5012C01D10C3004E0B4
:1024C000022C01D1103000E014301AB107682F43FC
:1024D000076002E00768AF430760F0BD1AB1838A66
:1024E0000B43838202E0838A8B4383827047028A94
:1024F0004FF6F0731A400282028A0A430282704742
:1025000082894FF2FF731A40828182890A43828155
:10251000704721B1828942F00202828104E08289FF
:102520004FF6FD731A4082817047028A4FF6DF73BF
:102530001A400282028A0A430282704721B1028A4B
:1025400042F48042028204E0028A4BF6FF731A4092
:1025500002827047C1F30802828070470146888872
:10256000C0F308007047818941F001018181704703
:10257000028BD2B20283028B42EA012202837047AD
:10258000028B02F47F420283028B0A43028370476C
:1025900021B1828A42F02002828204E0828A4FF6D0
:1025A000DF731A408282704721B1828A42F01002A2
:1025B000828204E0828A4FF6EF731A40828270476B
:1025C00021B1828A42F00802828204E0828A4FF6B8
:1025D000F7731A408282704721B1828942F4004227
:1025E000828103E08289C2F30E028281704721B1A9
:1025F000828A42F40062828204E0828A4FF2FF7390
:102600001A4082827047828A4FF6FB731A40828298
:10261000828A0A438282704721B1828A42F0020292
:10262000828204E0828A4FF6FD731A4082827047EC
:1026300002460020B1F5007F00D100BF13880B4097
:102640000BB1012000E00020704701F40072B2F5E8
:10265000007F00D100BFCA430280704770B50246B8
:10266000002400230025002040F66A16B14200D164
:1026700000BFC1F3421501F01F03012606FA03F360
:10268000012D02D19689334006E0022D02D1168A2F
:10269000334001E0968A33400C12012606FA04F416
:1026A0001688344013B10CB1012000E0002070BD49
:1026B00010B50022002340F66A14A14200D100BFE9
:1026C0000A1201249440A3B2DC43048010BD000030
:1026D000003801400044004000480040004C0040E9
:1026E0000050004008B501217C20FEF7E1FD0121EA
:1026F0000846FEF7DDFD0121FE48FEF788FB30208D
:10270000ADF8000010208DF8030002208DF80200C3
:102710006946F948FEF7AAFA3021F748FEF755FB5B
:102720004FF40050ADF8000010208DF80300022097
:102730008DF802006946F148FEF798FA4FF400510F
:10274000EE48FEF740FB4FF48040ADF8000010204B
:102750008DF8030002208DF802006946E848FEF774
:1027600085FA4FF48041E648FEF72DFB0120ADF8D5
:10277000000010208DF8030002208DF80200694649
:10278000DF48FEF773FA0220ADF8000004208DF850
:10279000030002208DF802006946D948FEF766FA68
:1027A0004FF48070ADF8000010208DF80300022077
:1027B0008DF802006946D348FEF758FA4FF40070CE
:1027C000ADF8000004208DF8030002208DF802000F
:1027D0006946CC48FEF74AFA0220ADF80000102006
:1027E0008DF8030002208DF802006946C248FEF70A
:1027F0003DFA0120ADF8000004208DF8030002200E
:102800008DF802006946BC48FEF730FA0820ADF8A2
:10281000000010208DF8030002208DF802006946A8
:10282000B848FEF723FA1020ADF8000004208DF818
:10283000030002208DF802006946B248FEF716FA3E
:102840004020ADF8000010208DF8030002208DF824
:1028500002006946AC48FEF709FA8020ADF8000096
:1028600004208DF8030002208DF802006946A64876
:10287000FEF7FCF91020ADF800008DF803000220EF
:102880008DF802006946A048FEF7F0F92020ADF867
:10289000000004208DF8030002208DF80200694634
:1028A0009948FEF7E3F90420ADF8000010208DF8F8
:1028B000030002208DF8020069469348FEF7D6F91E
:1028C0000820ADF8000004208DF8030002208DF8E8
:1028D000020069468C48FEF7C9F90120ADF80000F6
:1028E00010208DF8030002208DF80200694686480A
:1028F000FEF7BCF90220ADF8000004208DF80300BB
:1029000002208DF8020069467F48FEF7AFF94FF4C8
:102910000060ADF8000010208DF8030002208DF853
:10292000020069467548FEF7A1F94FF48050ADF8F2
:10293000000004208DF8030002208DF80200694693
:102940006E48FEF793F94FF40040ADF800001020F8
:102950008DF8030002208DF8020069466648FEF7F4
:1029600085F94FF48060ADF8000004208DF8030075
:1029700002208DF8020069466048FEF777F94FF4AF
:102980008050ADF8000010208DF8030002208DF873
:10299000020069465848FEF769F94FF40060ADF847
:1029A000000004208DF8030002208DF80200694623
:1029B0005148FEF75BF90820ADF8000010208DF8B3
:1029C000030002208DF8020069464C48FEF74EF9DC
:1029D0000420ADF800008DF8030002208DF80200FD
:1029E00069464648FEF742F94FF40070ADF8000022
:1029F00010208DF8030002208DF8020069463F4840
:102A0000FEF734F94FF48070ADF8000004208DF823
:102A1000030002208DF8020069463748FEF726F9C8
:102A20008020ADF8000010208DF8030002208DF802
:102A3000020069463148FEF719F94FF48070ADF88D
:102A4000000004208DF8030002208DF80200694682
:102A50002A48FEF70BF94FF40040ADF800001020B3
:102A60008DF8030002208DF8020069462648FEF723
:102A7000FDF84020ADF8000004208DF8030002208E
:102A80008DF8020069461D48FEF7F0F84FF400503B
:102A9000ADF8000010208DF8030002208DF8020030
:102AA00069461948FEF7E2F84FF48040ADF800009F
:102AB00004208DF8030002208DF8020069461248B8
:102AC000FEF7D4F84FF40060ADF8000010208DF848
:102AD000030002208DF8020069460B48FEF7C6F895
:102AE0004FF48050ADF8000004208DF80300022060
:102AF0000CE000000002300000080140001001401E
:102B000000180140000C0140001401408DF8020043
:102B10006946FE48FEF7AAF84FF40070ADF80000D1
:102B200010208DF8030002208DF802006946F74856
:102B3000FEF79CF84FF48060ADF8000004208DF89B
:102B4000030002208DF802006946F048FEF78EF877
:102B50004FF40040ADF8000010208DF80300022073
:102B60008DF802006946EA48FEF780F84FF480705D
:102B7000ADF8000004208DF8030002208DF802005B
:102B80006946E248FEF772F84FF40050ADF80000D5
:102B900010208DF8030002208DF802006946DC4801
:102BA000FEF764F84FF48040ADF8000004208DF883
:102BB000030002208DF802006946D548FEF756F85A
:102BC0004FF48060ADF8000010208DF80300022063
:102BD0008DF802006946CE48FEF748F84FF4805061
:102BE000ADF8000004208DF8030002208DF80200EB
:102BF0006946C748FEF73AF84FF48050ADF8000038
:102C000010208DF8030002208DF802006946C148AB
:102C1000FEF72CF84FF40060ADF8000004208DF8AA
:102C2000030002208DF802006946B948FEF71EF83D
:102C30004FF48060ADF8000010208DF803000220F2
:102C40008DF802006946B348FEF710F84FF40060B3
:102C5000ADF8000004208DF8030002208DF802007A
:102C60006946AC48FEF702F84FF48070ADF80000FA
:102C700010208DF8030002208DF802006946A54857
:102C8000FDF7F4FF4FF40070ADF8000004208DF85C
:102C9000030002208DF8020069469E48FDF7E6FF1A
:102CA0000420ADF8000010208DF8030002208DF8FC
:102CB000020069469648FDF7D9FF8020ADF8000074
:102CC00004208DF8030002208DF802006946914827
:102CD000FDF7CCFF0120ADF8000010208DF80300B7
:102CE00002208DF8020069468948FDF7BFFF0220E7
:102CF000ADF8000004208DF8030002208DF80200DA
:102D000069468348FDF7B2FF1020ADF800008DF84A
:102D1000030002208DF8020069467F48FDF7A6FFF8
:102D20002020ADF8000004208DF8030002208DF86B
:102D3000020069467848FDF799FF4020ADF8000091
:102D400010208DF8030002208DF8020069467348B8
:102D5000FDF78CFF8020ADF8000004208DF8030003
:102D600002208DF8020069466C48FDF77FFF49F2AA
:102D700042016A48FEF729F84AF20D516448FEF70D
:102D800024F840F698216448FEF71FF84AF65521CA
:102D90005E48FEF71AF841F201515E48FEF715F859
:102DA00008BD70B5B8B004460D461646E0225C4931
:102DB000684607F0C5FE86B1C5EBC5026B4603EB5E
:102DC000C20202EBC4029188C5EBC50203EBC2024A
:102DD00052F83400FDF7F7FF0FE0C5EBC5026B4674
:102DE00003EBC20202EBC4029188C5EBC50203EB00
:102DF000C20252F83400FDF7E8FF38B070BD30B5BC
:102E0000B9B004460D46E0224549E03101A807F07B
:102E100097FE4DB101AA02EBC402918801AA52F8B3
:102E20003400FDF7D0FF08E001AA02EBC40291884C
:102E300001AA52F83400FDF7C8FF39B030BD70B5B3
:102E4000B8B004460D460126E0223649684607F030
:102E500077FEC5EBC5026B4603EBC20202EBC40270
:102E60009188C5EBC50203EBC20252F83400FDF7AE
:102E700090FF0646304638B070BD30B5B9B0044654
:102E80000125E0222749E03101A807F059FE01AAF7
:102E900002EBC402918801AA52F83400FDF779FFD1
:102EA0000546284639B030BD10B504462046FFF728
:102EB000E4FF10BD48B11C49096841F080011A4A7D
:102EC0001160002218490A620CE01749096821F0D4
:102ED0008001154A1160002213490A6220210F4A1D
:102EE00014321160704710B50F48006AB0F5966F44
:102EF0000AD90A480C30006880F0200007490C31DC
:102F00000860002108480162084811E000140140EF
:102F1000000C014000180140001001400008014071
:102F2000F0DC0008B0DE00089C0B00204C180020EC
:102F3000806980B90E488068082803D00C488068F2
:102F40000C2808D10B48007828B9012009490870DD
:102F50000A2000F0B1F806488068082806D0044826
:102F600080680C2802D000200249087010BD0000C3
:102F70004C1800202800002008B501214020FEF751
:102F800097F94FF42040ADF8000010208DF80300B1
:102F900002208DF8020069466748FDF767FE4FF48E
:102FA00020416548FDF711FF4FF0FF30634948614C
:102FB0000120087608BD70B5044600254FF4004195
:102FC0005D48FDF702FF41F2883000F011FB00BFC1
:102FD00025E04FF400415848FDF7F5FE04F00100EC
:102FE00068B14FF4966000F003FB4FF40041524883
:102FF000FDF7EBFE4FF4C87000F0FAFA0CE04FF466
:10300000C87000F0F5FA4FF400414B48FDF7DDFEC3
:103010004FF4966000F0ECFA6410681CC5B2082DFD
:10302000D7DB4FF400414448FDF7CDFE642000F0AB
:10303000DFFA70BD10B5044614B14048007E00B9F7
:1030400010BD0B2C04D13E480078012800D1F7E7D1
:103050004FF400513848FDF7B6FE2046FFF7ABFFAE
:103060004FF400513448FDF7B0FE00BFE8E710B55B
:1030700032484069002817DB3248C06840F6B83152
:10308000884211D900212F48C1602F490A68096878
:10309000491C2D4B19602949885CFFF7CBFF274855
:1030A0004069401E2549486124484069401C10B9C8
:1030B00000202549086010BD20494969491C1F4A64
:1030C00051611146496950541146496919B941F293
:1030D00088321C49CA60704770B500240025174823
:1030E000007E38B919A008F0B7F900201C49087013
:1030F000E12470BD01201A4908701048007E0128A3
:1031000000D1E1240D48007E022800D1E8240B48BC
:10311000007E032800D1EF244FF400510648FDF74C
:1031200052FE2046FFF747FF4FF400510248FDF7DB
:103130004CFE00BFDDE700000018014094010020B4
:10314000450000209C0B00202C0000200D0A09B92E
:10315000D8B1D5D3EFD2F4B9A6B7C5090D0A00008E
:103160003000002008B54FF4E060FDF771F925202C
:103170008DF8000000208DF8010001208DF802007C
:103180008DF803006846FDF768F908BD08B54FF4EF
:10319000E060FDF75DF926208DF8000000208DF835
:1031A000010002208DF8020001208DF8030068461E
:1031B000FDF753F908BD08B54FF4E060FDF748F995
:1031C00034208DF8000000208DF8010001208DF8DA
:1031D00002008DF803006846FDF73FF908BD00B511
:1031E00085B0012144F20400FEF762F80121480491
:1031F000FEF76BF84FF40070ADF8100003208DF867
:10320000120018208DF8130004A98C48FDF72EFD3C
:103210004FF48060ADF8100004208DF8130004A96D
:103220008648FDF723FD4FF4E13000900020ADF813
:103230000400ADF80600ADF80800ADF80C000C2055
:10324000ADF80A0069467E48FFF78BF8FFF78AFF62
:103250000420ADF8100018208DF8130002208DF81E
:10326000120004A97548FDF701FD0820ADF8100013
:1032700004208DF8130004A97048FDF7F7FC4FF403
:10328000E13000900020ADF80400ADF80600ADF884
:103290000800ADF80C000C20ADF80A00694669483A
:1032A000FFF75FF8FFF772FF012240F225516448F3
:1032B000FFF7EFF8012240F225516248FFF7E9F8E5
:1032C00001215F48FFF7D9F801215E48FFF7D5F8E3
:1032D00005B000BDF0B503460C460021002000BF3C
:1032E00030E003EBC315584E06EBC505B5F80054A6
:1032F00003EBC316544F07EBC606B6F80264B5429B
:1033000000D121E0401C03EBC3154F4E06EBC50571
:1033100003EBC3164C4F07EBC606B6F80264AD5D6F
:10332000655403EBC3153E4606EBC505B5F80254DC
:103330006D1CC5F3090503EBC31607EBC606A6F81B
:103340000254491C9142CCD300BFF0BD2DE9F0419D
:1033500007460D4616460024012F06D0022F15D031
:10336000032F24D0042F44D132E000240BE0295D48
:103370003348FFF7EFF800BF80213148FFF758F9D5
:103380000028F9D0641CB442F1DB36E000240BE0E5
:10339000295D2C48FFF7DEF800BF80212948FFF7A0
:1033A00047F90028F9D0641CB442F1DB25E0002481
:1033B0000BE0295D2548FFF7CDF800BF80212348A9
:1033C000FFF736F90028F9D0641CB442F1DB14E0B1
:1033D00000240BE0295D1E48FFF7BCF800BF8021E8
:1033E0001B48FFF725F90028F9D0641CB442F1DB33
:1033F00003E04FF0FF30BDE8F08100BF2046FAE760
:1034000070B504460D46E1B20D48FFF7A3F800BFC2
:1034100080210B48FFF70CF90028F9D0204670BD39
:1034200010B5044600BF20210548FFF701F9002828
:10343000F9D00348FFF792F810BD000000080140E2
:103440000038014000440040200C002000480040AB
:10345000004C004008B54FF4E060FCF7F9FF1C2079
:103460008DF8000000208DF8010004208DF8020086
:1034700001208DF803006846FCF7EFFF08BD0EB58C
:1034800001210846FDF721FF4FF47A70ADF80400E2
:103490004720ADF800000020ADF80600ADF80200AE
:1034A00069464FF08040FEF7DFF801218807FEF7FC
:1034B000FDFE012211469007FEF74DFC0121880711
:1034C000FEF72EFC01210846FDF7FFFE0EBD08B5F4
:1034D0004FF4E060FCF7BCFF1D208DF800000020D9
:1034E0008DF8010005208DF8020001208DF8030001
:1034F0006846FCF7B2FF08BD0EB501210220FDF7BA
:10350000E4FE4FF47A70ADF804004720ADF80000F7
:103510000020ADF80600ADF8020069463E48FEF70F
:10352000A3F801213C48FEF7C1FE012211463A48AA
:10353000FEF711FC01213848FEF7F2FB00210220C2
:10354000FDF7C3FE0EBD08B54FF4E060FCF780FF49
:103550001E208DF8000000208DF8010003208DF85A
:10356000020001208DF803006846FCF776FF08BDD5
:103570000EB501210420FDF7A8FE4FF43470ADF81C
:1035800004000020ADF80000ADF80600ADF8020020
:1035900069462248FEF768F801212048FEF786FEBA
:1035A000012211461D48FEF7D6FB01211B48FEF7FC
:1035B000B7FB00210420FDF788FE0EBD10B5FFF714
:1035C000D7FFFFF7C0FF10BD01B5002000998800AC
:1035D00000E000BF0100A0F10100FAD108BD1048D1
:1035E000006820B10E480068401E0D490860704711
:1035F00070B5044608F0E8FD05460A4800886043B7
:1036000009490988614300EB114600BF08F0DCFD61
:10361000401BB042FAD370BD0004004000080040D7
:103620003400002024E1000826E10008FE4800687C
:10363000704770B504460D462CB9AC4201D001204C
:1036400070BD0020FCE70DB90120F9E705E0207806
:1036500008B90020F4E7641C6D1C207807F06AFAB2
:103660000646287807F066FA8642F0D0207807F000
:1036700061FA0646287807F05DFA301AE0E770B57F
:103680000446204607F09CFA451C2846E74909688D
:10369000884706460EB9002070BD2A4621463046AE
:1036A00007F04EFA3046F7E730B9E149DF4A1160DA
:1036B000E049E14A11607047016809B1016800E022
:1036C000DB49DA4A1160416809B1416800E0D94933
:1036D000D94A116000BFEEE710B52820D349096828
:1036E000884704461CB12821204607F042FA2046AC
:1036F00010BD70B5044622E02568A08900F48070F2
:1037000020B9A06810B1A068FFF7F3FFA08900F40A
:10371000807028B9206918B1C749206909688847AD
:10372000A08900F4007028B9206A18B1C249206A43
:10373000096888472046C049096888472C46002CFC
:10374000DAD170BD2DE9F04F8BB083468A46002058
:10375000044605460026B94F00218846894609904F
:10376000012008909AF800002D2802D1B44F0AF1E8
:10377000010A9AF80000302801D10AF1010A9AF8EA
:103780000000312822DB9AF8000039281EDC00BF37
:103790001AF8011BA1F1300007F057FB0022A94BDA
:1037A000CDE906012046294607F0DDFACDE90401FE
:1037B000DDE9062307F030FA04460D469AF80000CA
:1037C000302803DB9AF800003928E1DD9AF8000080
:1037D0002E2830D19AF8010030282CDB9AF801000D
:1037E000392828DC0AF1010A00BF1AF8011BA1F1EF
:1037F000300007F02AFB0022924BCDE9060120465B
:10380000294607F0B0FACDE90401DDE9062307F007
:1038100003FA04460D460022884B4046494607F00D
:103820009CFA804689469AF80000302803DB9AF813
:1038300000003928D9DD9AF80000652803D09AF8ED
:103840000000452823D10AF1010A9AF800002B282C
:1038500002D10AF1010A08E09AF800002D2804D1EB
:103860004FF0FF3008900AF1010A08E01AF8010B46
:103870003038099901EB810100EB410009909AF879
:103880000000302803DB9AF800003928EEDDDDE97E
:10389000082101FB02F007F0D8FA42464B46CDE979
:1038A000000107F0B9F902460B46CDE902010020FC
:1038B000644908F051FD22462B46CDE90601304609
:1038C000394607F050FACDE90401DDE9062307F097
:1038D0004AFA04460D46CBE906452046294607F03C
:1038E000C5FACBF814000320CBF80C0050460BB0FF
:1038F000BDE8F08F0146491E41EA610141EAA1019C
:1039000041EA211141EA212141EA2141481C704745
:103910002DE9F04104460E460CB1206810B9002094
:10392000BDE8F081A06806446068B04203DBA1688E
:1039300020680844F4E73046FFF7DCFF07463846C6
:103940003A490968884705463DB93B4920680968F6
:103950008847002060602060E2E725B12846D4E96E
:10396000001207F0EDF8344920680968884767605D
:103970002560A0682844D3E770B504460CB12068E0
:1039800008B9002070BDA16820684518284607F0D6
:1039900017F9A1680844F5E72DE9FC4782460E4671
:1039A0004FF00009DAE90645002213462046294671
:1039B00007F08EFA13D12EB102213046FFF7A8FF8F
:1039C000814604E002201949096888478146B9F117
:1039D000000F03D01CA00088A9F80000A0E0DAF8CE
:1039E000140007F032FA074622462B4607F0B5F9D5
:1039F00021F000410022154BCDE9000107F068FAE3
:103A00003FD8134A134B2046294607F061FA38D8AD
:103A10000022114B2046294607F06EFA31D80EB32A
:103A2000152130461AE00000380000203C0000203C
:103A3000B5C00008D9BF0008400000200000F03FDA
:103A40000000F0BF00002440300000000000B03C47
:103A50000000C0FFFFFFDF410000E0C1FFF758FF9B
:103A6000814604E01520FA49096888478146B9F182
:103A7000000F55D0F7A14846DAF8142007F0FCFCF7
:103A80004EE02EB140213046FFF742FF814604E070
:103A90004020EF49096888478146B9F1000F3FD0BF
:103AA0002046294608F02AFA074622462B4607F008
:103AB00054F921F000410022E74BCDE9000107F065
:103AC00007FA0FD825F000412746E44AE44B384670
:103AD00007F0FEF906D222462B46E2A1484607F03F
:103AE000CBFC1DE025F000412746E04AE04B38467C
:103AF00007F0EEF907D325F000410022DD4B3846F0
:103B000007F0FAF906D222462B46DBA1484607F019
:103B1000B3FC05E022462B46D8A1484607F0ACFC92
:103B20004846BDE8FC87014600220878302806DBBD
:103B30000878392803DC08783038024415E0087822
:103B4000412806DB0878462803DC08783738024429
:103B50000BE00878612806DB0878662803DC087823
:103B60005738024401E0002070471201491C0878D0
:103B7000302806DB0878392803DC0878303802441E
:103B800015E00878412806DB0878462803DC087829
:103B9000373802440BE00878612806DB087866288D
:103BA00003DC08785738024401E00020DCE712010A
:103BB000491C0878302806DB0878392803DC0878A7
:103BC0003038024415E00878412806DB087846289A
:103BD00003DC0878373802440BE00878612806DBFC
:103BE0000878662803DC08785738024401E0002092
:103BF000BAE71201491C0878302806DB0878392812
:103C000003DC08783038024415E00878412806DBE8
:103C10000878462803DC0878373802440BE0087837
:103C2000612806DB0878662803DC087857380244E8
:103C300001E0002098E7104696E72DE9F05F834603
:103C4000884608F10104002798F80000222805D0D2
:103C50008B48C0F800800020BDE8F09F04E014F815
:103C6000011B5C2900D1641C2078222804D0207814
:103C700010B1781C0700F2D1781C75490968884793
:103C80008146B9F1000F01D10020E5E708F10104F8
:103C90004D469EE020785C2804D014F8010B05F80E
:103CA000010B96E0641C2078722818D006DC62288C
:103CB00009D066280BD06E287ED10CE0742812D073
:103CC0007528F9D113E0082005F8010B7FE00C20DE
:103CD00005F8010B7BE00A2005F8010B77E00D20C9
:103CE00005F8010B73E0092005F8010B6FE0601C7B
:103CF000FFF719FF0646241DB6F55C4F02D3B6F553
:103D0000604F00D306B962E0B6F5584F1CD3B6F544
:103D10005C4F19D260785C2802D1A078752800D059
:103D200055E0E01CFFF7FFFE8246A41DBAF55C4F8C
:103D300002D3BAF5604F00D349E0C6F309015046FB
:103D400061F39F2000F580360427802E01D20127E1
:103D500008E0B6F5006F01D2022703E0B6F5803F18
:103D600000D203273D44012F20D0022F15D0032F6E
:103D70000AD0042F24D106F0BF0040F08001681E55
:103D800005460170B60900BF06F0BF0040F0800193
:103D9000681E05460170B60900BF06F0BF0040F07E
:103DA0008001681E05460170B60900BF3548C05D38
:103DB0003043C1B2681E00E005E00546017000BF57
:103DC00000BF3D4403E0207805F8010B00BF00BFB1
:103DD000641C2078222803D0207800287FF45AAF72
:103DE000002028702078222800D1641CCBF8109085
:103DF0000420CBF80C0020462EE72DE9F05F80462A
:103E000089460027BB46454611E02878002802DD98
:103E10002878202805DB2878222802D028785C28FA
:103E200001D1012000E0002040EA0B0B6D1C287836
:103E30000028EAD1BBF1000F3ED1A5EB0807B9F18C
:103E4000000F21D0F91C4846FFF762FD064620E02E
:103E50003C000020256400000000B03C44F3C2E4B4
:103E6000E4E9634C252E3066000000008DEDB5A01E
:103E7000F7C6B03E65CDCD41256500002566000042
:103E80003800002070E00008F81CF74909688847EE
:103E9000064616B90020BDE8F09F3446222004F8FB
:103EA000010B4146204606F092FE2220E0550021FB
:103EB000781C21543046EEE7B8F1000F16D1B9F165
:103EC000000F05D003214846FFF722FD064604E017
:103ED0000320E5490968884706460EB90020DAE75D
:103EE000E2A1304606F073FE3046D4E7454695F829
:103EF00000A00DE05146DEA006F058FE08B17F1C80
:103F000003E0BAF1200F00DA7F1D6D1C95F800A0C8
:103F1000BAF1000F02D0781C0700EBD1B9F1000F05
:103F200005D0F91C4846FFF7F3FC064604E0F81CF0
:103F3000CD490968884706460EB90020ABE73446EC
:103F40004546222004F8010B47E028781F280ADDA7
:103F50002878222807D028785C2804D015F8010B8F
:103F600004F8010B39E05C2004F8010B15F8011B83
:103F70008A460C2919D006DC082912D0092920D03C
:103F80000A2922D115E00D2917D0222905D05C2954
:103F90001BD15C2004F8010B1EE0222004F8010B69
:103FA0001AE0622004F8010B16E0662004F8010B09
:103FB00012E06E2004F8010B0EE0722004F8010BF1
:103FC0000AE0742004F8010B06E05246AAA120463C
:103FD00007F052FA641D00BF00BF28780028B4D152
:103FE000222004F8010B002004F8010B304652E7B0
:103FF00070B504460D4629462069FFF7FEFE70BDE8
:1040000000E0401C20B1017811B101782029F8DDD1
:1040100070472DE9F04706460C4620787B2804D0EF
:10402000974804600020BDE8F0870620F060601C1F
:10403000FFF7E6FF044620787D2801D1601CF2E7F7
:10404000FFF74AFB0546B060B06808B90020EAE710
:104050002046FFF7D5FF804641462846FFF7EDFD95
:104060000746FFF7CDFF04460CB90020DBE72869BF
:1040700028620020286120783A2803D08048046014
:104080000020D0E7601CFFF7BBFF80464146284672
:1040900000F09BF80746FFF7B3FF04460CB9002079
:1040A000C1E732E0FFF718FB07460FB90020BAE777
:1040B0002F607D603D46601CFFF7A2FF81464946A8
:1040C0002846FFF7BAFD8046FFF79AFF04460CB971
:1040D0000020A8E7286928620020286120783A2873
:1040E00003D06748046000209DE7601CFFF788FF4D
:1040F00081464946284600F068F88046FFF780FF71
:1041000004460CB900208EE700BF20782C28C9D0C7
:1041100020787D2801D1601C85E759480460002083
:1041200081E72DE9F04705460C4620785B2804D04E
:10413000534804600020BDE8F0870520E860601C5B
:10414000FFF75EFF044620785D2801D1601CF2E78E
:10415000FFF7C2FA0646A860A86808B90020EAE797
:104160002046FFF74DFF80464146304600F02DF8CF
:104170000746FFF745FF04460CB90020DBE718E0CF
:10418000FFF7AAFA07460FB90020D4E737607E6030
:104190003E46601CFFF734FF81464946304600F03A
:1041A00014F88046FFF72CFF04460CB90020C2E744
:1041B00000BF20782C28E3D020785D2801D1601C36
:1041C000B9E72F4804600020B5E770B505460C46F6
:1041D0000CB9002070BD04222AA1204606F000FD83
:1041E00018B90220E860201DF4E7052227A1204627
:1041F00006F0F6FC18B90020E860601DEAE704222A
:1042000024A1204606F0ECFC20B90120E86068619A
:10421000201DDFE72078222804D121462846FFF719
:104220000CFDD7E720782D2805D02078302807DB33
:104230002078392804DC21462846FFF783FAC9E7AD
:1042400020785B2804D121462846FFF76AFFC1E7A2
:1042500020787B2804D121462846FFF7DAFEB9E70B
:10426000074804600020B5E73C000020222200003F
:10427000225C080C0A0D0900752530347800000016
:10428000380000206E756C6C0000000066616C7375
:104290006500000074727565000000002DE9F047AC
:1042A00080460D4616460024FFF716FA0746002002
:1042B000FE4908600FB9BDE8F0874046FFF7A0FE51
:1042C000814649463846FFF780FF044624B9384600
:1042D000FFF70FFA0020EEE766B12046FFF790FEE9
:1042E0000446207830B13846FFF703FAEF480460FF
:1042F0000020E0E705B12C603846DCE710B5044645
:10430000002211462046FFF7C9FF10BD2DE9FF4FDF
:1043100089B0884616461F460020089007900690F0
:104320004FF0070A00250998D0F808900020029065
:104330000190009004E00298401C0290D9F800908F
:10434000B9F1000FF7D10298002835D157B116B155
:1043500008F1040000E0032001463846FFF7D8FAD0
:10436000069009E016B108F1040100E003210846B7
:10437000CF49096888470690069818B900200DB003
:10438000BDE8F08F069C7B2004F8010B66B10A2083
:1043900004F8010B002503E0092004F8010B6D1C53
:1043A000A8F10100A842F7DC7D2004F8010B0020F1
:1043B00004F8010B0698E2E7002F77D0BD680EB134
:1043C000022000E0012082460AF101013846FFF791
:1043D0009FFA04460CB90020D1E77B2004F8010BBA
:1043E00016B10A2004F8010B00202070B868504470
:1043F000B8600998D0F8089008F1010868E0B6B1F3
:1044000041463846FFF784FA04460CB90020B6E767
:104410000020039005E0092004F8010B0398401CDC
:10442000039003984045F6DBB8684044B8603946CD
:10443000D9F82000FFF7E1FC3846FFF79DFAB86095
:104440000EB1022000E00120824651463846FFF7B7
:104450005FFA04460CB9002091E73A2004F8010BFA
:1044600016B1092004F8010BB8685044B8603B4607
:1044700032464146484600F078FA3846FFF77CFA63
:10448000B8600EB1012000E00020D9F8001009B199
:10449000012100E0002100EB010A0AF10101384688
:1044A000FFF736FA044614B9002068E734E0D9F87B
:1044B000000010B12C2004F8010B16B10A2004F8FA
:1044C000010B00202070B8685044B860D9F8009003
:1044D000B9F1000F93D116B108F1010000E00220FC
:1044E00001463846FFF714FA04460CB9002046E7A7
:1044F0004EB1002503E0092004F8010B6D1CA8F162
:104500000100A842F7DC7D2004F8010B0020207098
:1045100038682844069005E10299880064490968D2
:1045200088470890089808B9002028E70299880071
:104530005F49096888470790079828B95D49089836
:104540000968884700201AE702988100089806F059
:1045500010FB02988100079806F00BFB0998D0F831
:10456000089008F1010806B1C2442EE00021D9F8F4
:104570002000FFF742FC0490079941F82500002332
:1045800032464146484600F0F0F929466D1C059038
:10459000089A42F82100049898B1059888B10598C6
:1045A00006F00EFB8346049806F00AFB0BEB0001B5
:1045B000891C16B108F1020000E000200844824482
:1045C00001E001200190D9F80090B9F1000FCDD1A0
:1045D000019820B9504636490968884706900698E0
:1045E00008B901200190019818B3002514E007983C
:1045F00050F8250028B1079951F825002D49096880
:104600008847089850F8250028B1089951F82500E6
:104610002849096888476D1C02988542E7DB2549CF
:10462000079809688847234908980968884700203F
:10463000A5E67B21069801700698441C16B10A2055
:1046400004F8010B0020207000254FE05EB100202F
:10465000039005E0092004F8010B0398401C039027
:1046600003984045F6DB079951F8250006F0A8FAB3
:104670000090079850F825102046009A06F060FA3E
:10468000009804443A2004F8010B16B1092004F8FC
:10469000010B089850F82510204606F098FA089962
:1046A00051F8250006F08CFA044405E0380000209B
:1046B0003C000020400000200298401EA84202D08A
:1046C0002C2004F8010B16B10A2004F8010B00207D
:1046D0002070079951F82500FE4909688847089914
:1046E00051F82500FB49096888476D1C02988542EE
:1046F000ACDBF849079809688847F64908980968C3
:1047000088474EB1002503E0092004F8010B6D1C19
:10471000A8F10100A842F7DC7D2004F8010B00207D
:1047200004F8010B06982AE62DE9FF4F85B0924662
:104730001E464FF0000B052003900598D0F8088026
:10474000D946002500200290019003E009F10109FB
:10475000D8F80080B8F1000FF8D1B9F1000F16D1E8
:104760002EB103213046FFF7D3F8834604E003203F
:10477000D949096888478346BBF1000F03D0D7A108
:10478000584606F024FA584609B0BDE8F08F002ECE
:1047900057D0B56801213046FFF7BAF804460CB986
:1047A0000020F1E75B202070B068401CB0600598E5
:1047B000D0F808802EE0334652460699491C404600
:1047C00000F0D3F83046FFF7D7F8B060D8F8000013
:1047D000F0B1BAF1000F01D0022000E001200390F7
:1047E0000399491C3046FFF793F804460CB90020A2
:1047F000CAE72C2004F8010BBAF1000F02D02020E8
:1048000004F8010B00202070B16803980844B060E0
:10481000D8F80080B8F1000F02D002980028CAD062
:1048200002213046FFF774F804460CB90020ABE7CC
:104830005D2004F8010B00202070306800EB050BB0
:1048400091E04FEA8900A4490968884707460FB9F3
:10485000002099E74FEA8901384606F08AF9059861
:10486000D0F8088021E0002352460699491C4046B2
:1048700000F07BF8049029466D1C049847F821004D
:10488000049870B1049806F09BF9801CBAF1000FEF
:1048900001D0012100E00021014403980844039065
:1048A00001E001200290D8F80080B8F1000F02D09A
:1048B00002980028D7D0029820B987490398096840
:1048C00088478346BBF1000F01D101200290029876
:1048D00090B1002508E057F8250020B157F82500D1
:1048E0007C49096888476D1C4D45F4DB3846794999
:1048F00009688847002047E75B208BF800000BF130
:10490000010400202070002521E057F8250006F062
:1049100057F9019057F825102046019A06F010F932
:1049200001980444A9F10100A8420AD02C2004F8FF
:10493000010BBAF1000F02D0202004F8010B002077
:10494000207057F825006349096888476D1C4D455C
:10495000DBDB38465F49096888475D2004F8010BB6
:10496000002004F8010B58460EE72DE9F0410446FB
:104970000F4690461D46002614B90020BDE8F08180
:10498000002D49D0207B072845D2DFE800F0101C1D
:1049900004282E343C0005212846FEF7B9FF0646C0
:1049A00026B1AFF22071304606F011F933E006214E
:1049B0002846FEF7ADFF064626B1AFF2307130460D
:1049C00006F005F927E005212846FEF7A1FF064677
:1049D00026B1AFF24071304606F0F9F81BE02946E7
:1049E0002046FEF7D9FF064615E029462046FFF788
:1049F000FFFA06460FE02B46424639462046FFF7AF
:104A000093FE064607E02B46424639462046FFF70E
:104A10007DFC064600BF37E0207B072833D2DFE865
:104A200000F00A1004161C222A00AFF2A870FEF74C
:104A300026FE064627E0AFF2AC70FEF720FE0646E3
:104A400021E0AFF2B070FEF71AFE06461BE000212F
:104A50002046FEF7A1FF064615E000212046FFF79D
:104A6000C7FA06460FE00023424639462046FFF7C4
:104A70005BFE064607E00023424639462046FFF724
:104A800045FC064600BF00BF304677E710B5044638
:104A90000023012219462046FFF767FF10BD10B51D
:104AA000044600231A4619462046FFF75EFF10BD54
:104AB000FEB505460C461646204607490968884754
:104AC00000900194002002906B4632460021284657
:104AD00006E00000400000203C0000205B5D00007C
:104AE000FFF743FFFEBD01468A68002001E0401C3D
:104AF0001268002AFBD170470246906801E0491E07
:104B0000006808B10029FADC704770B505460E460A
:104B1000AC6800E024682CB13146206AFEF789FDBC
:104B20000028F7D1204670BD01604860704770B51D
:104B30000546FEF7D1FD04460CB9002070BD2822C1
:104B40002946204605F0FCFF00202062E06840F482
:104B50008070E0600020606020602046EEE770B565
:104B600005460E46AC6806B970BD0CB9AE6009E0EA
:104B700000E0246814B120680028FAD131462046AC
:104B8000FFF7D2FF00BFEFE770B506460D461446AB
:104B900004B970BD206A18B1FE49206A09688847C7
:104BA0002846FEF76CFD206221463046FFF7D7FF0E
:104BB00000BFEEE770B506460D46144604B970BD59
:104BC000A08900F4007028B9206A18B1F149206A60
:104BD000096888472562E06840F40070E06021467B
:104BE0003046FFF7BCFF00BFE9E770B505460C464D
:104BF0002046FFF79CFF064631462846FFF7AFFFE9
:104C000070BD2DE9F04105460E4614462046FFF7DB
:104C10008EFF07463A4631462846FFF7B5FFBDE806
:104C2000F08110B502460B46916801E009685B1EF1
:104C300009B1002BFADC09B9002010BD486810B199
:104C4000D1E900042060086810B1D1E9004060603B
:104C50009068884201D10868906000200860486030
:104C60000846EAE770B504460D4629462046FFF798
:104C7000D8FF0646FEF73DFD70BD2DE9F041054623
:104C80000F460026AC6801E0761C24682CB139463A
:104C9000206AFEF7CEFC0028F6D12CB1314628461A
:104CA000FFF7BFFFBDE8F0810020FBE770B50446C9
:104CB0000D4629462046FFF7E0FF0646FEF719FDA0
:104CC00070BD2DE9F04106460F461446B56801E077
:104CD0002D687F1E0DB1002FFADC2DB9214630461C
:104CE000FFF73DFFBDE8F0812560686860606C609B
:104CF000B068A84201D1B46001E06068046000BF00
:104D0000F0E72DE9F04106460F461446B56801E08C
:104D10002D687F1E0DB1002FFADC0DB9BDE8F081C2
:104D20002868206068686060206808B12068446076
:104D3000B068A84201D1B46001E06068046000205E
:104D4000686028602846FEF7D4FC00BFE6E72DE93E
:104D5000F04105460E4617464FF00008AC6802E0E9
:104D600008F1010824682CB13146206AFEF761FC85
:104D70000028F5D144B13046FEF781FC38623A464E
:104D800041462846FFF7BDFFBDE8F08110B5FEF7AC
:104D9000A3FC04460CB10220E060204610BD10B513
:104DA000FEF79AFC04460CB10120E060204610BDDD
:104DB00010B5FEF791FC04460CB10020E0602046DF
:104DC00010BD70B50546FEF787FC044624B10DB151
:104DD000012000E00020E060204670BD70B505466F
:104DE0000E46FEF779FC044644B10320E060C4E9B6
:104DF00006562846314606F039F86061204670BDF7
:104E000070B50546FEF768FC04462CB10420E0604E
:104E10002846FEF734FC2061204670BD10B5FEF731
:104E20005BFC04460CB10520E060204610BD10B5C7
:104E3000FEF752FC04460CB10620E060204610BD8F
:104E40002DE9F05F81468A460025AB46FFF7E6FF75
:104E50000646002410E059F8240005F0F6FF074646
:104E6000FFF7BCFF05460CB9B56003E0294658467C
:104E7000FFF75AFEAB46641C0EB15445EBDB3046DF
:104E8000BDE8F09F2DE9F05F81468A460025AB46DC
:104E9000FFF7C4FF0646002410E059F8240006F08E
:104EA00004F80746FFF79AFF05460CB9B56003E022
:104EB00029465846FFF738FEAB46641C0EB15445F0
:104EC000EBDB3046BDE8F09F2DE9F047074688460A
:104ED0000025A946FFF7A2FF0646002410E007EBD5
:104EE000C400D0E900211046FFF778FF05460CB951
:104EF000B56003E029464846FFF716FEA946641C44
:104F00000EB14445EBDB3046BDE8F0872DE9F047B4
:104F1000074688460025A946FFF780FF064600247D
:104F20000DE057F82400FFF76BFF05460CB9B5609C
:104F300003E029464846FFF7F7FDA946641C0EB179
:104F40004445EEDB3046BDE8F0872DE9F0470546E5
:104F500089464FF0000815B90020BDE8F087FEF73C
:104F6000BBFB04460CB90020F7E7E86820F480702A
:104F7000E06068696061D5E90601C4E90601286955
:104F800070B12869FEF77BFB2061206940B920469B
:104F900002E0000040000020FEF7ABFB0020DCE751
:104FA000286A50B1286AFEF76AFB2062206A20B99D
:104FB0002046FEF79EFB0020CFE7B9F1000F01D19C
:104FC0002046CAE7AF6816E001213846FFF7BDFF6B
:104FD000064626B92046FEF78CFB0020BDE7B8F157
:104FE000000F05D0C8F80060C6F80480B04601E0A4
:104FF000A660B0463F68002FE6D12046ADE70146E7
:1050000055E00278202A01D1401C50E00278092A9C
:1050100001D1401C4BE002780D2A01D1401C46E032
:1050200002780A2A01D1401C41E002782F2A0BD1D4
:1050300042782F2A08D100E0401C0278002A36D09E
:1050400002780A2A33D0F7E702782F2A0ED1427865
:105050002A2A0BD100E0401C02782AB102782A2AC1
:10506000F9D142782F2AF6D1801C20E00278222A3A
:1050700019D110F8012B01F8012B0AE002785C2A03
:1050800003D110F8012B01F8012B10F8012B01F8C6
:10509000012B027812B10278222AEFD110F8012BED
:1050A00001F8012B03E010F8012B01F8012B027825
:1050B000002AA6D10A70704770B506460024002564
:1050C00026B1012E15D0022E3ED122E000240AE0A6
:1050D000002505E0E9B2E0B20122FDF762FE6D1C99
:1050E000042DF7DB641C072CF2DBFD48FEF76CFA9D
:1050F0002AE000240AE0002505E0E9B2E0B200223F
:10510000FDF74FFE6D1C042DF7DB641C072CF2DB52
:105110001AE0002415E0002510E0E9B2E0B2FDF746
:105120008EFE28B9E9B2E0B20122FDF73AFE04E0B2
:10513000E9B2E0B20022FDF734FE6D1C042DECDB79
:10514000641C072CE7DB00BF00BF70BD30B585B025
:105150001421684605F00DFD0024012507E02846CE
:105160006D1CE0490A5C2046641C0DF80020DD48F7
:10517000405D0028F3D10DF80400082C02D0401E39
:1051800005B030BD684605F03AFDF9E730B5A1B08D
:1051900000240025D4A006F05FF95BE0102201A9ED
:1051A0000120FEF797F80546002444E0D548007832
:1051B00000282EDDD348007814282ADA01A8005DE3
:1051C0000D2803D001A8005D0A2818D10021CD4880
:1051D00002780078401CCB4B1870C24881540020E4
:1051E00019460870FFF7B2FFC749C1F8C800084662
:1051F000D0F8C810C5A006F02FF921B030BD01A825
:10520000015DC04802780078401CBE4B1870B5485C
:10521000815401A8005D24280CD10020B9490870F0
:1052200001A8015DB74802780078401CB54B1870A2
:10523000AC488154641CAC42B8DB802201A9022036
:10524000FEF748F80546002D04DD2A4601A9012095
:10525000FEF77CF8A2E700B587B04FF4E060FBF7FB
:10526000F7F801210420FCF723F801214804FCF79A
:105270002CF80420ADF8180018208DF81B0002202F
:105280008DF81A0006A9A648FBF7F0FC0820ADF837
:10529000180004208DF81B0006A9A148FBF7E6FCC6
:1052A0004FF4E13002900020ADF80C00ADF80E0094
:1052B000ADF81000ADF814000C20ADF8120002A9F2
:1052C0009848FDF74EF826208DF8040000208DF850
:1052D000050002208DF8060001208DF8070001A8C6
:1052E000FBF7BBF8012240F225518E48FDF7D1F8BB
:1052F00001218C48FDF7C1F807B000BD2DE9F0434E
:10530000D1B000250026002701244FF000084FF0FF
:105310000009022000F079FA0620FDF78BFEB1E0CB
:105320000A2C09D141A9062000F0C0FB05462A46F7
:1053300041A90220FEF70AF8322C0BD1FFF78BFFB0
:1053400041A9012000F0B2FB05462A4641A90220EE
:10535000FDF7FCFF642C09D141A9072000F0A6FB52
:1053600005462A4641A90220FDF7F0FFB4F5FA7F71
:1053700009D141A9002000F099FB05462A4641A920
:105380000220FDF7E3FF41F2883094FBF0F100FBCF
:10539000114038B9B8F1000F04D100F0B3F906207C
:1053A000FDF748FE40F6B830FEF70EF9641C4FF4E6
:1053B000807201A90220FDF78DFF0546002637E027
:1053C00001A9881900F052FA0746002F2FD000F0EB
:1053D00008FB0C281FD10420FDF72CFE4FF001091B
:1053E000022000F012FA012000F00FFA01204E49CD
:1053F00008702A4601A9FDF7A9FF4CA006F02CF879
:105400005048FEF7E1F800F0AAF94E48FEF7DCF844
:1054100051B0BDE8F083022000F0F7F9002000F061
:10542000F4F900F0DEFA0E2801D14FF00108761CE5
:10543000AE42C5DBB9F1000F1DD14FF4967094FB5D
:10544000F0F100FB114060B94FF400513E48FBF70A
:10545000BCFC3D480C30006880F480403A490C3177
:10546000086040F6055094FBF0F100FB114010B9C4
:105470000620FDF7DFFD002D04DD2A4601A90120ED
:10548000FDF764FF4CE710B54FF47A742FA005F0D8
:10549000E3FF13E040213648FBF77BFC50B935A011
:1054A00005F0DAFF00F0EFF800F0EFF833A005F0B8
:1054B000D3FF00244FF4FA50FEF786F82000A4F141
:1054C0000104E7D13148FEF77FF82AA005F0C4FFB8
:1054D00000F0D9F800F0D8F80148FEF775F857E069
:1054E000404B4C00B0010020726561647920746FFC
:1054F00020736574206465766963652069640D0AAC
:105500000000000044000020C401002044657669CA
:1055100063654944203D202564200D0A00000000F9
:105520000008014000440040480000200D0A2063AC
:105530006F6E6E65637420737563636573730D0AB4
:105540000000000040420F0000180140C7EBB0B45B
:10555000CFC2C2BCD2F4B0B4BCFCA3ACBDF8D0D0B6
:10556000C2BCD2F4B2E2CAD4A3A10D0A000000006A
:10557000001C014042454550210D0A00456E642043
:105580006F6620726563210D0A000000801A060014
:105590002AA005F061FF4FF47A7410E080213048B2
:1055A000FBF7F7FB38B900F06EF82EA005F054FFBA
:1055B00000F06CF800244FF4FA50FEF705F82000D4
:1055C000A4F10104EAD12C48FDF7FEFF00F05CF8DD
:1055D0002948FDF7F9FF0A20FDF72CFD2748FDF7C4
:1055E000F3FF0620FDF726FD2548FDF7EDFF04201B
:1055F000FDF720FD2248FDF7E7FF0220FDF71AFD29
:105600001F48FDF7E1FF0B20FDF714FD1B48FDF7D8
:10561000DBFF10BD10B54FF4FA640020FFF74CFD1E
:1056200006E00220FFF748FD42F21070FDF7CCFFC4
:105630002000A4F10104F4D110BD0000C7EBB0B408
:10564000CFC2C9BEB3FDB0B4BCFCA3ACBDF8D0D0D2
:10565000C9BEB3FDB2E2CAD4A3A10D0A0000000086
:10566000001C01405374617274206F662065726182
:105670007365210D0A00000040420F00404B4C00B2
:1056800080841E00704770477047704770477047AE
:105690007047704708B501211020FBF709FE012073
:1056A000ADF8000010208DF8030002208DF80200F4
:1056B00069466748FBF7DAFA0220ADF800000420DB
:1056C0008DF8030002208DF8020069466048FBF760
:1056D000CDFA01215E48FBF778FB08BD704710B595
:1056E000A0B000246946062000F0E0F9044644F624
:1056F0002060FDF769FF224669460220FDF726FE7D
:1057000020B010BD10B5A0B000246946072000F0FD
:10571000CDF9044644F62060FDF756FF224669465F
:105720000220FDF713FE44F62060FDF74DFF6946A9
:10573000082000F0BBF9044644F62060FDF744FF62
:10574000224669460220FDF701FE44F62060FDF77F
:105750003BFF00203F4981F8F80020B010BD10B594
:105760008EB0002401A9092000F0A0F9044644F6F7
:105770002060FDF729FF224601A90220FDF7E6FD82
:1057800044F62060FDF720FF01A9092000F08EF902
:10579000044644F62060FDF717FF224601A90220C7
:1057A000FDF7D4FD0EB010BD10B588B000242AA1BD
:1057B000684605F061FE044644F62060FDF704FFEC
:1057C000224669460220FDF7C1FD44F62060FDF740
:1057D000FBFE08B010BD10B590B0002402201D499A
:1057E00081F8F80069460A2000F060F9044644F6A2
:1057F0002060FDF7E9FE224669460220FDF7A6FD7E
:105800001848FDF7E1FE10B010BD10B50446012C9C
:1058100008D141030E48FBF7D8FAA1031248FBF761
:10582000D2FA14E0022C08D161030F48FBF7CBFA3F
:1058300021030748FBF7C7FA09E04FF480410A4803
:10584000FBF7C3FA4FF400510148FBF7BCFA10BD57
:1058500000100140C401002041542B4357514150D6
:105860000D0A000040420F000018014030B502460A
:105870000021002011780A2901D00D2912D1FD4BF9
:1058800093F8BC35012B02DDFA4B93F8BC050024DC
:10589000F84B93F8BC5503F27C535C55F54B83F8F9
:1058A000BC4529E0F34B93F8BC353F2B20DAF14B94
:1058B00093F8BC4593F8BC355B1CDDB2ED4B83F827
:1058C000BC5503F27C531955202915D1E94B93F8A7
:1058D0007C353E2B10D1E74B93F8BC05002493F8A0
:1058E000BC5503F27C535C55E24B83F8BC4503E0A6
:1058F0000024E04B83F8BC4530BD30B502460021A2
:1059000000201178242910D1DB4B1B786BB90123BF
:10591000D94C23700023637223465C7A5B7A5B1C4C
:10592000D54D6B726B1C195517E0D34B5B7A052B69
:1059300010DAD14B5C7A5B7A5B1CCF4D6B726B1CBF
:105940001955402909D15B1E587A00232C466372F1
:10595000237002E00023C84C637230BD30B50146AD
:1059600000200A787B2A22D1C24A92F8C429F2B9CF
:105970000123C04A82F8C4390022BE4BC3F8C025B7
:105980000B78BC4AD2F8C045D2F8C025521CB94D9C
:10599000C5F8C02505F2C4521355B84A126842F042
:1059A0000802B64B1A600023B44A136118E0B14AEA
:1059B000D2F8C02540F2FF339A4211DAAD4A92F88C
:1059C000C429012A0CD10B78AA4AD2F8C045D2F8D2
:1059D000C025521CA74DC5F8C02505F2C452135569
:1059E00030BD10B5A6A1A94805F0CEF808B10C202D
:1059F00010BDA7A1A54805F0C7F808B10E20F7E72C
:105A0000A7A1A24805F0C0F840B1A6A19F4805F0A3
:105A1000BBF808B10820EBE70120E9E7A3A19B4808
:105A200005F0B2F878B1A3A1984805F0ADF808B137
:105A30000F20DDE7A3A1954805F0A6F808B10D20D9
:105A4000D6E70420D4E7A3A1904805F09DF808B15B
:105A50000220CDE7A1A18D4805F096F808B10B20F2
:105A6000C6E7A0A1894805F08FF808B11020BFE76C
:105A70009EA1864805F088F808B10420B8E7A0A1E7
:105A8000824805F081F808B10D20B1E79EA17F485A
:105A900005F07AF808B10D20AAE79DA17B4805F032
:105AA00073F808B10720A3E70F20A1E770B50446FB
:105AB0000D4600260C2C52D2DFE804F0060C121F13
:105AC00019272D33393F454B92A1284605F0D4FCC8
:105AD000064645E091A1284605F0CEFC06463FE08B
